:040000000CEF00F011
:10000800FACF03F0FBCF04F0E9CF05F040ED0EF096
:1000180000EF0EF0290E01014E6F000E01014F6F27
:1000280054D2250E01015719D8B405D001015751F2
:100038008BEC12F04AD2000E0101556F000E546F7E
:10004800000E0101566F06D001015685274A282A5D
:1000580001D00BD027C0F6FF28C0F7FF0800F550E5
:10006800300AD8B4F1D701D0F5D727C0F6FF28C099
:10007800F7FF0800F55078EC11F0D8A042D0000E38
:100088000101556F000E546F00D054C111F055C1D5
:1000980012F0000E146E0A0E136E51EC11F011C01E
:1000A80054F112C055F1D00E356EFF0E366E27C0D2
:1000B800F6FF28C0F7FF0800F550376E386A35504C
:1000C800372636503822375001015427385001015D
:1000D8005523274A282A27C0F6FF28C0F7FF08001B
:1000E800F55078EC11F0D8A00CD0CFD70AD0FCD1BD
:1000F8000101568906D020D00101568F1DD0E5D1C7
:100108001BD027C0F6FF28C0F7FF274A282A080077
:10011800F5CF57F101015751000AD8B4E5D1640A67
:10012800D8B40AD00D0AD8B407D0050AD8B4E0D795
:10013800140AD8B4E1D7C9D1010156BF35D001019D
:1001480056A90ED04EC1D9FF4FC1DAFFDECF50F10C
:10015800DECF51F1DECF52F1DECF53F1040E0FD0D6
:100168004EC1D9FF4FC1DAFFDECF50F1DDCF51F1DB
:100178000101000E51BFFF0E526F536F020E0101B5
:100188004E27000E4F2300D0010153AF89D0030E34
:10019800010156130101531F521F511F506D000ECC
:1001A8005123522353237CD0010156A90ED04EC1AE
:1001B800D9FF4FC1DAFFDECF50F1DECF51F1DECFEC
:1001C80052F1DECF53F1040E10D04EC1D9FF4FC10A
:1001D800DAFFDECF35F0DDCF36F035C050F136C06E
:1001E80051F10101526B536B020E01014E27000EB3
:1001F8004F2356D0010E0101576F0A0E01015719FE
:10020800D8B458D001D056D001015751040D980EDA
:10021800F324F66EFE0EF420F76E0900F550010186
:10022800505D0900F550010151590900F5500101CF
:1002380052590900F55001015359D8A03BD001D0BB
:1002480039D00101572BD9D735D0010E0101576F8D
:10025800080E01015719D8B42DD001D02BD00101B7
:100268005751040DC00EF324F66EFE0EF420F76EFF
:100278000900F5500101505D0900F550010151597F
:100288000900F550010152590900F550010153596F
:10029800D8A010D001D00ED00101572BD9D70AD041
:1002A80001015651800B000AD8B4A4D7800AD8B4EB
:1002B800CCD700D00101545101015511D8B40BD04D
:1002C80056C135F0030E3516D8B405D001015407D0
:1002D800D8A0550700D0800E010157BF7F0E356E9C
:1002E800010154510101575D01015551800A3558EA
:1002F800D8B00BD0010157510101545F000E010124
:1003080057BFFF0E0101555B06D0000E0101556F66
:10031800000E546F00D0010156A51FD056C135F00C
:10032800030E3516D8B404D02D0E8BEC12F000D085
:100338000101545101015511D8B42ED0300E8BEC67
:1003480012F001015407D8A05507010154510101C9
:100358005511D8B421D0F2D71FD001015451010151
:100368005511D8B40FD0200E8BEC12F001015407B0
:10037800D8A055070101545101015511D8B402D034
:10038800F2D700D056C135F0030E3516D8B404D0D4
:100398002D0E8BEC12F000D00101575101014C6F6A
:1003A8004D6B4CBF4D0784D074D04CC135F04DC156
:1003B80036F0D89035363636D89035363636980EEB
:1003C8003524F66EFE0E3620F76E0900F5CF15F0CF
:1003D8000900F5CF16F00900F5CF17F00A00F5CFA0
:1003E80018F050C111F051C112F052C113F053C1AD
:1003F80014F035EC0DF011C01EF012C01FF013C040
:1004080020F014C021F00A0E226E000E236E000E9A
:10041800246E000E256E7EEC0EF01E50300F01018A
:10042800576F41D050C111F051C112F052C113F0B1
:1004380053C114F04CC135F04DC136F0D890353663
:100448003636D89035363636C00E3524F66EFE0E62
:100458003620F76E0900F5CF15F00900F5CF16F034
:100468000900F5CF17F00A00F5CF18F035EC0DF0BC
:1004780011500F0B01014B6F01014B51010D740E0F
:10048800F324F66EFF0EF420F76E0800F5CF57F14F
:100498000AD001015651800B000AD8B486D7800AC9
:1004A800D8B4C0D700D0010157518BEC12F000D05E
:1004B80001014C07D8A04D0701014C29EAE10101CF
:1004C8004D29D8B402D0E5D700D027C0F6FF28C000
:1004D800F7FF274A282A0800F5CF57F1010157519D
:1004E800D8B402D09ED500D0120044AE1CD02D0E38
:1004F8000001E36F7F0E4414176E186A000E1A6E1F
:100508000A0E196EEAEC0CF01750300F0001E46F78
:100518007F0E44141F6E206A000E226E0A0E216E92
:10052800BFEC0DF01BD02B0E0001E36F44C017F099
:1005380045C018F0000E1A6E0A0E196EEAEC0CF09F
:100548001750300F0001E46F44C01FF045C020F081
:10055800000E226E0A0E216EBFEC0DF01F50300FF8
:100568000001E56F00D047AE29D02D0E0001E76FDE
:1005780046C0F2F047C0F3F00001F21FF31FF24B40
:10058800F32BF2C0F4F0F3C0F5F0F4C017F0F5C0A7
:1005980018F0000E1A6E0A0E196EEAEC0CF01750DD
:1005A800300F0001E86FF4C01FF0F5C020F0000E16
:1005B800226E0A0E216EBFEC0DF01BD02B0E00012F
:1005C800E76F46C017F047C018F0000E1A6E0A0E03
:1005D800196EEAEC0CF01750300F0001E86F46C0B6
:1005E8001FF047C020F0000E226E0A0E216EBFECED
:1005F8000DF01F50300F0001E96F00D05E380F0B6F
:10060800300F0001CD6F5E500F0B300F0001CE6F21
:100618005FC0D0F05F500F0B300F0001D16F62C088
:10062800D3F062500F0B300F0001D46F60C0C4F0DC
:1006380060500F0B300F0001C56F5A50300F00018A
:10064800C76F5A500F0B300F0001C86F6C50300F36
:100658000001CA6F6C500F0B300F0001CB6F5004B4
:10066800D8A40BD0DF0E116E000E126EED0E136EB5
:10067800FF0E146E0BEC11F00BD0DF0E116E000E96
:10068800126EF10E136EFF0E146E0BEC11F000D00B
:100698005CC017F0186A000E1A6E640E196EEAEC48
:1006A8000CF01750300F0001DB6F000E1A6E0A0EA7
:1006B800196E5CC017F0186AEAEC0CF017C01FF04E
:1006C80018C020F0000E226E0A0E216EBFEC0DF04D
:1006D8001F50300F0001DC6F5CC01FF0206A000E55
:1006E800226E190E216EBFEC0DF01F50300F000165
:1006F800DD6F4CC017F04DC018F0030E1A6EE80EEF
:10070800196EEAEC0CF01750300F0001D66F000E8E
:100718001A6E640E196E4CC017F04DC018F0EAEC52
:100728000CF017C01FF018C020F0000E226E0A0E41
:10073800216EBFEC0DF01F50300F0001D76F000E77
:100748001A6E0A0E196E4CC017F04DC018F0EAEC7C
:100758000CF017C01FF018C020F0000E226E0A0E11
:10076800216EBFEC0DF01F50300F0001D86F4CC048
:100778001FF04DC020F0000E226E0A0E216EBFEC55
:100788000DF01F50300F0001D96F170E396EE30EB0
:100798003A6E000E3B6EFF0E3D6EE00E3C6E000E94
:1007A8003F6E000E3E6E020E406E010E60EC09F0C8
:1007B800170E396EE70E3A6E000E3B6EFF0E3D6E59
:1007C800E00E3C6E000E3F6E000E3E6E020E406E56
:1007D800460E60EC09F0340E396ECD0E3A6E000EFE
:1007E8003B6E070E3D6E3C68000E3F6E000E3E6E7F
:1007F800020E406E0F0E60EC09F0520E396EC40EF8
:100808003A6E000E3B6E070E3D6EE00E3C6E000E1B
:100818003F6E000E3E6E020E406E0F0E60EC09F049
:10082800820E396EDF0E3A6E000E3B6EF80E3D6E8C
:10083800000E3C6E000E3F6E000E3E6E010E406EC6
:100848005F0E60EC09F0960E396EDB0E3A6E000E04
:100858003B6E070E3D6EE00E3C6E000E3F6E000EC6
:100868003E6E010E406E0A0E60EC09F0960E396E6F
:10087800D60E3A6E000E3B6E070E3D6EE00E3C6ED5
:10088800000E3F6E000E3E6E010E406E5D0E60EC77
:1008980009F012004EEC12F03CEC11F0000E256E3F
:1008A800000E246ED5EC11F02A0E4E6E010E4F6E1E
:1008B8004EC011F04FC012F01F0E136EFF0E146ED3
:1008C8000BEC11F0010E396E4EC03AF04FC03BF000
:1008D800FF0E3D6E3C68000E3F6E000E3E6E010E30
:1008E800406E010E60EC09F04EC011F04FC012F0DE
:1008F800C30E136EFF0E146E0BEC11F00B0E396E57
:100908004EC03AF04FC03BF0F80E3D6E1F0E3C6EE5
:10091800000E3F6E000E3E6E010E406E180E60EC2B
:1009280009F0000E1D6E280E1C6E000E1F6E170EAD
:100938001E6E000E216E020E206EFF0E236EE00E5C
:10094800226EA2EC06F04EC011F04FC012F0F90E64
:10095800136EFF0E146E0BEC11F0170E396E4EC0AD
:100968003AF04FC03BF0FF0E3D6EE00E3C6E000EBD
:100978003F6E000E3E6E020E406E2D0E60EC09F0CA
:100988004EC011F04FC012F0F30E136EFF0E146E2E
:100998000BEC11F0000E1D6E6E0E1C6E000E1F6E1D
:1009A800170E1E6E000E216E020E206EFF0E236EB5
:1009B800E00E226EA2EC06F0170E396E4EC03AF029
:1009C8004FC03BF0FF0E3D6EE00E3C6E000E3F6EDA
:1009D800000E3E6E020E406E730E60EC09F04EC0C3
:1009E80011F04FC012F0E30E136EFF0E146E0BECF5
:1009F80011F0280E396E4EC03AF04FC03BF0000E91
:100A08003D6E1F0E3C6E000E3F6E000E3E6E010ED8
:100A1800406E320E60EC09F04EC011F04FC012F07B
:100A2800E80E136EFF0E146E0BEC11F0470E396EC4
:100A38004EC03AF04FC03BF0F80E3D6E000E3C6ED3
:100A4800000E3F6E000E3E6E010E406E320E60ECE0
:100A580009F04EC011F04FC012F0DD0E136EFF0EFC
:100A6800146E0BEC11F0780E396E4EC03AF04FC090
:100A78003BF0000E3D6E1F0E3C6E000E3F6E000EEA
:100A88003E6E010E406E550E60EC09F04EC011F03E
:100A98004FC012F0FC0E136EFF0E146E0BEC11F02B
:100AA8008C0E396E4EC03AF04FC03BF0FF0E3D6ED3
:100AB8003C68000E3F6E000E3E6E010E406E0C0E3E
:100AC80060EC09F04EC011F04FC012F0F50E136E35
:100AD800FF0E146E0BEC11F08C0E396E4EC03AF00E
:100AE8004FC03BF0FF0E3D6E3C68000E3F6E000E9F
:100AF8003E6E010E406E5F0E60EC09F0120048EC8D
:100B080010F04EEC04F08098320E5C6E00D057EC7A
:100B18000FF062506E18D8B45ED062C06EF0EDEC83
:100B280010F014C044F015C045F044C011F045C0A1
:100B380012F0000E146E090E136E51EC11F011C074
:100B480017F012C018F0000E1A6E050E196EEAECB6
:100B58000CF0200E1724466E000E1820476E24EC69
:100B680010F0EBC04CF0ECC04DF0010E276EFF0EFC
:100B7800286E5EC029F02A6A5FC02BF02C6A62C01A
:100B88002DF02E6A60C02FF0306A5AC031F0326AF8
:100B98006CC033F0346A0EEC00F04B0E276EFF0E7B
:100BA800286E44C029F045C02AF046C02BF047C043
:100BB8002CF00EEC00F0600E276EFF0E286E4CC075
:100BC80029F04DC02AF05CC02BF02C6A0EEC00F026
:100BD80079EC02F000D04A044B10D8A498D7000E44
:100BE8004B6E000E4A6E850E276EFF0E286E51C0A2
:100BF80029F02A6A0EEC00F0F288F19C5D68000E7C
:100C080001015C6F000E5B6F01015CBF0AD001013E
:100C18005C5125E1150E01015B5DD8B020D001D0F3
:100C28001ED0800E01015B25D96E000E01015C21EA
:100C3800DA6E5150DE18D8A408D05BC15DF0000E02
:100C480001015C6F150E5B6F00D001015B4B5C2BE3
:100C580001015CBFE6D701015C5101E1DBD7F7C0B8
:100C680051F0000E01015A6F000E596F01015ABF71
:100C78000AD001015A512FE1150E0101595DD8B072
:100C88002AD001D028D0800E01015925D96E000E36
:100C980001015A21DA6E5150DE18D8A417D059C173
:100CA8005DF0E00E276EFE0E286EF6C029F0F7C044
:100CB8002AF0F8C02BF0F9C02CF051C02DF02E6AA4
:100CC8005DC02FF0306A0EEC00F000D00101594BE6
:100CD8005A2BCCD700D05D28D8A407D0350E276E64
:100CE800FF0E286E0EEC00F012D724EC12F0A50EC1
:100CF800276EFF0E286E5DC029F02A6A0EEC00F000
:100D0800050E5D18D8A403D089EC11F000D0060EAA
:100D18005D18D8A403D0F1EC11F000D0070E5D18CF
:100D2800D8A403D0E3EC11F000D0080E5D18D8A4C5
:100D3800EED624EC0FF0EBD60CEF00F020C024F038
:100D480021C025F0241E251E244A252A010E24240C
:100D58002A6E000E25202B6E000E276E010E266EC1
:100D680020C024F021C025F0D89024362536241E32
:100D7800251E244A252A24C028F025C029F0000E63
:100D88002D6E000E2C6E20C02EF021C02FF01E50AC
:100D98002024186E22C019F023C01AF01C5024EC2D
:100DA80011F0205000081E24186E22C019F023C02C
:100DB8001AF01C5024EC11F01EC018F022C019F0D3
:100DC80023C01AF01C50202424EC11F01EC018F087
:100DD80022C019F023C01AF0205000081C2424EC6B
:100DE80011F078D02BBE0BD02E06D8A02F06020EFD
:100DF8002826000E292228502A2629502B222C4A40
:100E08002D2A020E2626000E272226502A26275093
:100E18002B221E502E24186E22C019F023C01AF05F
:100E28001C502C2424EC11F01E502E24186E22C0C5
:100E380019F023C01AF02C5000081C2424EC11F0DF
:100E48002E5000081E24186E22C019F023C01AF074
:100E58001C502C2424EC11F02E5000081E24186E6F
:100E680022C019F023C01AF02C5000081C2424ECCE
:100E780011F01E502C24186E22C019F023C01AF04D
:100E88001C502E2424EC11F01E502C24186E22C065
:100E980019F023C01AF02E5000081C2424EC11F07D
:100EA8002C5000081E24186E22C019F023C01AF016
:100EB8001C502E2424EC11F02C5000081E24186E0F
:100EC80022C019F023C01AF02E5000081C2424EC6C
:100ED80011F000D02E502C5C2D50800A246E2F501B
:100EE800800A2458D8A07ED71200F2925250D8B463
:100EF8009ED0CE50CFCF01F0026A01C002F0016A45
:100F08000110486E0250496E000ECF6E000ECE6E74
:100F18008ED0000ECF6E000ECE6E9E90900ECD6ECF
:100F2800CD80000E586E000E0001F66F000EF76FB0
:100F3800000EF86F000EF96F010E526E76D088D051
:100F48001D0E485C250E4958D8B009D0340E485CAF
:100F5800210E4958D8A003D0020E526E2AD0B9ECFF
:100F680012F027D026D074D0890E485C130E495849
:100F7800D8B009D0A00E485C0F0E4958D8A003D0AD
:100F8800030E526E52D0B9EC12F04FD04ED060D052
:100F9800BD0E485C020E4958D8B008D0900E485C87
:100FA800010E4958D8A002D0040ED7D7B9EC12F0D8
:100FB80000D0F19C4DD0090E485C070E4958D8B0B6
:100FC80031D0900E485C010E4958D8A02BD0D8904B
:100FD8000001F6350001F66F0001F7350001F76FE3
:100FE8000001F8350001F86F0001F9350001F96FCB
:100FF800E90E485C030E4958D8A008D0010E00013C
:10100800F627000EF723F823F92300D0582A1F0EDD
:101018005864B6D7000E4B6E010E4A6EF298000E59
:10102800526EAED7B9EC12F000D0F18C11D05250FC
:10103800000AD8B46ED7010AD8B482D7030AD8B444
:1010480093D7010AD8B4A4D7070AD8B4B4D700D024
:101058001200366E800E3660A6D09F0E2E6401D028
:10106800A2D03450D8A403D0010E346E00D01F0E85
:101078002F6404D07E0E2F6403D000D03F0E2F6E55
:10108800000E386E040E386401D08DD0530E2F60D8
:1010980015D0E00E2F24116E126AFF0E1222000ED8
:1010A800146E050E136E51EC11F038501126000E17
:1010B8001222BD0E1124F66EFC0E14D0AD0E2F2494
:1010C800116E126AFF0E1222000E146E050E136EB8
:1010D80051EC11F038501126000E1222BC0E1124CA
:1010E800F66EFD0E1220F76E0800F5CF35F000D031
:1010F800000E376E060E376401D053D035A023D0CA
:101108003404D8A40CD02E503724186E30C019F0EF
:1011180031C01AF03650382424EC11F03ED0375044
:101128003402F3502E24236E34C024F034C025F04A
:1011380030C026F031C027F038503402F35036243E
:10114800FFEC0FF02AD03050321804E13150331838
:10115800D8B423D03404D8A40CD02E503724186E19
:1011680032C019F033C01AF03650382424EC11F08C
:1011780014D037503402F3502E24236E34C024F098
:1011880034C025F032C026F033C027F0385034027E
:10119800F3503624FFEC0FF000D0372AD8903532C0
:1011A800A9D7382A6FD71200010E83EC12F0000E6F
:1011B800186E960E176E89EC0FF0110E83EC12F074
:1011C800010E186EF40E176E89EC0FF0B10E83EC59
:1011D80012F0010E7BEC12F02C0E7BEC12F02D0EAF
:1011E8007BEC12F0B20E83EC12F0010E7BEC12F0E5
:1011F8002C0E7BEC12F02D0E7BEC12F0B30E83EC70
:1012080012F0010E7BEC12F02C0E7BEC12F02D0E7E
:101218007BEC12F0010E7BEC12F02C0E7BEC12F042
:101228002D0E7BEC12F0B40E83EC12F0070E7BEC63
:1012380012F0C00E83EC12F0A20E7BEC12F0020E3C
:101248007BEC12F0840E7BEC12F0C10E83EC12F0F2
:10125800C50E7BEC12F0C20E83EC12F00A0E7BEC8A
:1012680012F0000E7BEC12F0C30E83EC12F08A0E23
:101278007BEC12F02A0E7BEC12F0C40E83EC12F019
:101288008A0E7BEC12F0EE0E7BEC12F0C50E83ECAE
:1012980012F00E0E7BEC12F0200E83EC12F0360EDC
:1012A80083EC12F0C80E7BEC12F03A0E83EC12F0CD
:1012B800050E7BEC12F012000001EB6FEBC0F1F0B1
:1012C80039C0F0F03AC011F03BC012F090EC10F0C9
:1012D80011C0ECF012C0EDF0000E0001EF6F000E2F
:1012E800EE6F64D06F50D8B434D04050050D000173
:1012F800F151416E426AF3504126F450422242BEF7
:1013080028D0425004E1810E415CD8A022D0000EC2
:101318000001F16F4050070DF3500001F025030F55
:101328000001F06FA00E0001F06504D0A00E0001CE
:10133800F06F00D00001EE513A24D96E0001EF5150
:101348003B20DA6E200EDE18D8B42CD002D02AD07A
:1013580000D0F0C02EF00001EE513A24D96E000101
:10136800EF513B20DA6EDF502F6E3CC030F03DC0AD
:1013780031F03EC032F03FC033F040C034F00001DD
:10138800F1512DEC08F04050060DF3500001F12505
:101398000001F16F800E0001F16504D0800E00019C
:1013A800F16F00D00001EE4BEF2B00D00001EC51A3
:1013B8000001EE5D0001ED510001EF59D8A092D770
:1013C80012001FC023F0246A256A1E34233601E365
:1013D80024802350266E2650D8A402D00ED06CD07C
:1013E80022C023F0246A256A2134233601E32480AD
:1013F80023502B6E2B50D8A407D0000E1D6E000E64
:101408001E6E000E1F6E58D02B507B0F26261FC055
:101418002BF022502B1A800E2B161E8E218EFF0EBB
:101428002016FF0E2116000E2216000E276E000E43
:10143800286E000E296E070E2A6E00D01DA007D058
:1014480020502726215028222250292200D0D89027
:101458001F321E321D32D8902036213622362A2ECF
:10146800EDD700D0090E2A6E00D01DA007D020505D
:101478002726215028222250292200D0D8901F3216
:101488001E321D32D8902932283227322A2EEDD723
:1014980000D027C011F028C012F029C013F026C0D0
:1014A80014F02BC015F02CEC0CF011C01DF012C07C
:1014B8001EF013C01FF000D01200E00E83EC12F0F3
:1014C800020E7BEC12F01C0E7BEC12F0070E7BEC8C
:1014D80012F0120E7BEC12F0370E7BEC12F0320E8B
:1014E8007BEC12F0290E7BEC12F02D0E7BEC12F047
:1014F800290E7BEC12F0250E7BEC12F02B0E7BEC08
:1015080012F0390E7BEC12F0000E7BEC12F0010E9B
:101518007BEC12F0030E7BEC12F0100E7BEC12F059
:10152800E10E83EC12F0030E7BEC12F01D0E7BEC47
:1015380012F0070E7BEC12F0060E7BEC12F02E0E6A
:101548007BEC12F02C0E7BEC12F0290E7BEC12F0E7
:101558002D0E7BEC12F02E0E7BEC12F02E0E7BEC97
:1015680012F0370E7BEC12F03F0E7BEC12F0000EFF
:101578007BEC12F0000E7BEC12F0020E7BEC12F00A
:10158800100E7BEC12F0130E83EC12F0000E186EA6
:101598000A0E176E89EC0FF0290E83EC12F0000E7C
:1015A800186E640E176E89EC0FF0120013C015F058
:1015B800166A176A1234153601E3168015501F6E25
:1015C8001F50D8A402D039D063D0170E156E11C0A1
:1015D80016F012C017F013C018F01528196E04D0B1
:1015E800D890183217321632192EFAD716501A6EAA
:1015F800128EFF0E1116FF0E1216000E1316115042
:101608001B6E12501C6E13501D6E1E6A8E0E1F5ECE
:101618001FAE10D01F50800A8F0FD8B003D00DD046
:1016280037D000D0D8901E321D321C321B321F3EDC
:10163800F9D719D0170E1F6411D0000E116E000EC5
:10164800126E000E136E000E146E22D007D0D890C2
:101658001B361C361D361E361F0600D01F50D8B448
:1016680002D0F5D700D01A50D8B409D01E1E1D1EBE
:101678001C1E1B6C000E1C221D221E2200D01BC02B
:1016880011F01CC012F01DC013F01EC014F000D0E1
:1016980012002EC032F0336A346A2D34323601E338
:1016A80033803250396E3950D8A402D00ED061D070
:1016B80031C032F0336A346A3034323601E3338071
:1016C80032503A6E3A50D8A407D0000E2C6E000E55
:1016D8002D6E000E2E6E4DD0000E366E000E376E3B
:1016E800000E386E3A50890F395E2EC03AF03150EC
:1016F8003A1A800E3A162D8EFF0E2C16FF0E2D1656
:10170800000E2E16308EFF0E2F16FF0E3016000E0E
:101718003116180E356E00D0D89036363736383632
:101728002F502C5C30502D5831502E58D8A007D04F
:101738002F502C5E30502D5A31502E5A3680D8906A
:101748002C362D362E36352EE7D700D036C011F080
:1017580037C012F038C013F039C014F03AC015F091
:101768002CEC0CF011C02CF012C02DF013C02EF090
:1017780000D01200236E800E236069D09F0E18647B
:1017880001D065D0FF0E1D6EFF0E1E6E195023C0CE
:101798001FF0206A1F26000E20221D501F261E50F3
:1017A800202220BE0AD0205004E1800E1F5CD8A061
:1017B80004D023500008800F196EFF0E1D6EFF0E17
:1017C8001E6E1A5018C01FF0206A1F26000E202215
:1017D8001D501F261E50202220BE0BD0205004E191
:1017E800A00E1F5CD8A005D018500008A00F1A6ED4
:1017F80000D018C014F0235019241D6E1D04156E56
:1018080018501A241E6E1E04166E2350B2EC0FF0E8
:101818001C50216E1BC022F08180819A1AC018F0DA
:101828001850D8B413D001D011D019C023F02350C8
:10183800D8B40AD001D008D021503AEC12F0225086
:101848003AEC12F02306F3D71806EAD7818A120079
:101858001450D8B405D0115012101310D8A40ED0BB
:10186800000E116E000E126E000E136E53D006D0CD
:10187800142AD89013321232113200D0000E1114EB
:10188800166E000E1214176EFE0E1314186E1650F4
:1018980017101810D8B40ED0EBD70CD0142A010E9C
:1018A8001126000E1222000E1322D8901332123283
:1018B800113200D0000E1114166E000E1214176E9D
:1018C800FF0E1314186E165017101810D8B408D03D
:1018D800E5D706D01406D89011361236133600D044
:1018E80012BE04D0020E1460F5D700D014B002D096
:1018F800129E00D0D8901432145013121550D8B438
:1019080002D0138E00D011C011F012C012F013C013
:1019180013F000D01200416E040ECB6E070ECA6E93
:10192800000E206E800E216E400E226E415065EC36
:1019380011F019C01DF01AC01EF01BC01FF0E5EC15
:1019480009F01DC02CF01EC02DF01FC02EF0000E97
:101958002F6EA00E306E410E316E4DEC0BF02CC088
:101968003EF02DC03FF02EC040F03EC011F03FC009
:1019780012F040C013F0DAEC0AF011C042F012C0C5
:1019880043F041503B6E3C6A42503B5C3C50800AFD
:101998003D6E4350800A3D58D8B003D0424A432A8E
:1019A80000D042C03BF0030E3B163B38F00B0C094D
:1019B800BD6E42C03BF043C03CF03C343C323B324D
:1019C8003C343C323B323B50BE6E1200000E1C6E63
:1019D8001AAE07D0196C1A1ED8B01A2A010E1C6E3E
:1019E80000D018AE07D0176C181ED8B0182A010EF0
:1019F8001C1A00D0000E1E6E000E1D6E19501A1013
:101A0800D8B421D0010E1B6E05D0D89019361A36DD
:101A18001B2A00D01ABE02D0F8D700D0D8901D36A5
:101A28001E361950175C1A501858D8A006D01950ED
:101A3800175E1A50185A1D8000D0D8901A321932E1
:101A48001B2EECD700D01C50D8B405D01D6C1E1E20
:101A5800D8B01E2A00D01DC017F01EC018F000D044
:101A68001200000E196E000E1A6E000E1B6E000E8C
:101A78001C6E1550161017101810D8B42FD0010E60
:101A88001D6E07D0D89015361636173618361D2A0B
:101A980000D018BE02D0F6D700D0D89019361A3622
:101AA8001B361C361550115C165012581750135817
:101AB80018501458D8A00AD01550115E1650125A52
:101AC8001750135A1850145A198000D0D890183249
:101AD8001732163215321D2EE0D700D019C011F07A
:101AE8001AC012F01BC013F01CC014F01200226EB2
:101AF800800E22603FD09F0E186401D03BD0FF0EAD
:101B08001C6EFF0E1D6E195018C01EF01F6A1E268F
:101B1800000E1F221C501E261D501F221FBE0BD058
:101B28001F5004E1A00E1E5CD8A005D01850000874
:101B3800A00F196E00D01B50206E1AC021F018C0DB
:101B480014F022C015F0185019241C6E1C04166ECF
:101B58002250B2EC0FF08180819A07D020503AECE5
:101B680012F021503AEC12F000D019061928D8A426
:101B7800F5D7818A1200000E246E20AE07D01F6CA4
:101B8800201ED8B0202A010E246E00D022AE05D027
:101B9800216C221ED8B0222A00D021502210D8B49D
:101BA8001DD0010E236E05D0D89021362236232A67
:101BB80000D022BE02D0F8D700D021501F5C22509E
:101BC8002058D8A005D021501F5E2250205A00D09E
:101BD800D89022322132232EF0D700D02450D8B406
:101BE80005D01F6C201ED8B0202A00D01FC01FF0BF
:101BF80020C020F000D0120000EEF6F00A0EEE6AC7
:101C0800E806FDE100EE44F0290EEE6AE806FDE183
:101C1800B20EF66E1F0EF76E000EF86E01EE00F0B3
:101C280010EE4BF00900F5CFEEFFE550E150FAE178
:101C3800DC0EF66E1D0EF76E000EF86E00EE80F0EC
:101C480010EE6BF00900F5CFEEFFE550E150FAE138
:101C58007A0EF66E250EF76E000EF86E0900F5CFB7
:101C68006DF00900F5CF6EF00900F5CF6FF0000EAA
:101C7800F86E000183EF05F00600EACF06F0E1CF29
:101C880007F0E2CF08F0D9CF09F0DACF0AF0F3CFA6
:101C98000BF0F4CF0CF0F6CF0DF0F7CF0EF0F8CF35
:101CA8000FF0F5CF10F09EA003D098EC12F000D002
:101CB800F2A203D079EC07F000D010C0F5FF0FC0F6
:101CC800F8FF0EC0F7FF0DC0F6FF0CC0F4FF0BC005
:101CD800F3FF0AC0DAFF09C0D9FF08C0E2FF07C056
:101CE800E1FF06C0EAFF05C0E9FF04C0FBFF03C02F
:101CF800FAFF11002250231024102510D8B429D03F
:101D0800010E266E07D0D890223623362436253683
:101D1800262A00D025BE02D0F6D700D022501E5C5D
:101D280023501F582450205825502158D8A009D096
:101D380022501E5E23501F5A2450205A2550215AE3
:101D480000D0D8902532243223322232262EE6D7EC
:101D580000D01EC01EF01FC01FF020C020F021C000
:101D680021F01200136E000EAC6E000EAB6E13A0C5
:101D780002D0AC8800D013A203D0AC8CAB8C00D0BE
:101D880013A402D0AC8E00D013A602D0AB8802D028
:101D9800AB8A00D013B8AC849E9813AA02D0AB8645
:101DA80000D013AC02D09D8A01D09D9A9E9A13AEA2
:101DB80002D09D8801D09D9811C0AFFF1250B06E1F
:101DC800AC8AAB8E949C948EACB8ACBE02D0948C8A
:101DD80000D01200A262E22202C2E0A8906898B085
:101DE80030187A10385A424A5230303A30303A3045
:101DF800300030303A30303A30300030312F303126
:101E08002F30300030303A30303A3030003037350B
:101E180046004F464600300030302F30302F3030EB
:101E28000030303A30303A30300030303030003026
:101E38003030004F4646002B3235002B3737000034
:101E4800680E136E000E146E69EC12F01350132412
:101E5800CEEC10F01450CEEC10F0260E626E350E5B
:101E68005F6E070E5E6E020E5B6E070E5A6E100EE8
:101E7800606E950E6C6E6250CEEC10F05F50CEEC3A
:101E880010F05E50CEEC10F05B50CEEC10F05A50D3
:101E9800CEEC10F06050CEEC10F06C50CEEC10F0A0
:101EA80060EC12F01200680E156E000E146E69ECEC
:101EB80012F015501524CEEC10F01450CEEC10F0A2
:101EC8002FEC12F0D8801534CEEC10F0010E6CEC2B
:101ED80010F0626E010E6CEC10F05F6E010E6CEC8F
:101EE80010F05E6E010E6CEC10F05B6E010E6CEC87
:101EF80010F05A6E010E6CEC10F0606E000E6CEC77
:101F080010F06C6E60EC12F0120017C011F018C0DF
:101F180012F0000E146E7D0E136E51EC11F011C00C
:101F28001BF012C01CF01BC019F01CC01AF0191EBF
:101F38001A1E194A1A2AFF0E19241B6EFF0E1A20A0
:101F48001C6E030ED56E1BC0D6FF1C50D76EF294C4
:101F5800D58E00D0F2A4FED7D59E1200176E2A0E99
:101F680083EC12F0000E7BEC12F0175059247BEC36
:101F780012F0000E7BEC12F0155059247BEC12F095
:101F88002B0E83EC12F0000E7BEC12F0145061243F
:101F98007BEC12F0000E7BEC12F0165061247BEC07
:101FA80012F02C0E83EC12F0120000F800F800F882
:101FB8001F001F00E0071FF81FF81FF800000000AF
:101FC8000000000000000000000000000000000009
:101FD8000000000020454345333330314C20537016
:101FE800273231204C313200000000000000000090
:101FF8000000000000002B6E2BC02CF02D6A0ED0C4
:1020080023C018F025C019F026C01AF027C01BF00D
:102018002C507BEC0DF02C4A2D2A00D024502BC0DC
:1020280028F0296A2826000E292228502C5C2D50D9
:10203800800A2A6E2950800A2A58D8A0E1D71200AF
:10204800B2CF17F0186A000E1A6E020E196EEAEC7B
:102058000CF017C0EDF018C0EEF0000EB26EEDC037
:1020680011F0EEC012F0000E146E3C0E136E51EC1F
:1020780011F011C0EBF012C0ECF005D0320E5C6E1E
:102088005C508FEC0CF0120044EC12F0700ED36E22
:102098000F0EC16E000E926E010E936E010E946EBD
:1020A800000E956EF19E000EB26E030EB16EA00E7C
:1020B800116E860E126E010E136E000E146E9EECDB
:1020C80012F0B8EC11F0A9EC11F0000E506E1200ED
:1020D800116EB5EC12F0000E126E070E126401D0EC
:1020E8000FD092EC12F083AE03D0D880133604D010
:1020F80013501324136E00D0B1EC12F0122AEDD74E
:102108001150D8B403D072EC12F003D0A3EC12F043
:1021180000D0135000D0120011C015F012C016F0F4
:1021280003D0154A162A00D015C0D9FF16C0DAFF09
:10213800DF50D8A4F6D711C013F012C014F0131E44
:10214800141E134A142A15501324116E1650142005
:10215800126E00D012002A0E83EC12F0000E7BECF7
:1021680012F0000E7BEC12F0000E7BEC12F07F0EEA
:102178007BEC12F02B0E83EC12F0000E7BEC12F0CD
:10218800000E7BEC12F0000E7BEC12F09F0E7BEC45
:1021980012F01200116E000E126E070E126401D0BA
:1021A80011D011AE03D0B5EC12F003D0A8EC12F0A8
:1021B80000D092EC12F0B1EC12F011501124116E13
:1021C800122AEBD7B5EC12F092EC12F0B1EC12F047
:1021D8001200480E186EAA0E166E69EC12F018500E
:1021E8001824CEEC10F01650CEEC10F02FEC12F0B4
:1021F800D8801834CEEC10F0000E6CEC10F0176E8E
:1022080060EC12F017C014F0156A00D0120011C06B
:1022180015F012C016F005D0154A162A134A142ACA
:1022280000D013C0F6FF14C0F7FF15C0D9FF16C0C1
:10223800DAFF0800F5CFDFFFDF50D8A4EDD7120092
:102248001B6E800E1B6013D09F0E186401D00FD038
:1022580018C014F01B28156E1828166E1B50B2EC07
:102268000FF01A507BEC12F019507BEC12F01200B0
:10227800818A8190800EC76E300EC66ED8EC08F049
:10228800AFEC10F061EC0AF0360E83EC12F0C00EE1
:102298007BEC12F0010E536E120011501302F3CFB3
:1022A80015F0F4CF16F011501402F3501626125000
:1022B8001302F350162615C011F016C012F000D004
:1022C80012001C6E1C50116E126A136A8E0E146E68
:1022D800000E156E2CEC0CF011C019F012C01AF09B
:1022E80013C01BF000D01200136E000E126E3A0ECF
:1022F800136006D02F0E136403D0010E126E00D0A7
:1023080012C011F0113000D01200D00E276EFF0E4F
:10231800286E0EEC00F05004D8A403D019EC12F08B
:1023280003D0C7EC11F000D01200156E69EC12F062
:1023380015501524CEEC10F01350CEEC10F01450BC
:10234800CEEC10F060EC12F01200700ED36EF19E1D
:10235800F292F19CF288000ECF6E000ECE6E9E9027
:102368009D80F28CF28E1200480E166EAC0E136E23
:10237800020E146E165099EC11F0EE0E136E1650F4
:10238800FFEC11F01200B40E276EFF0E286E0EEC53
:1023980000F0010E506E5C508FEC0CF08088848445
:1023A8001200000E186E800E196EA00E1A6E24C050
:1023B8001BF025C01CF0000EBEEC0BF01200640EE2
:1023C8005C18D8A403D024EC12F006D0050E5C26C5
:1023D8005C508FEC0CF000D01200640E5C18D8A48E
:1023E80003D024EC12F006D0050E5C5E5C508FEC36
:1023F8000CF000D01200146E69EC12F01450142482
:10240800CEEC10F01350CEEC10F060EC12F012008D
:10241800030ED56EDB0ED66E0B0ED76EF294D58EEC
:1024280000D0F2A4FED7D59E1200950E276EFF0E9F
:10243800286E0EEC00F0000E506E80988494120006
:10244800818E57EC12F00CEC12F0819EADEC12F07C
:102458000CEC12F01200B1EC12F0B5EC12F092ECA8
:1024680012F0A8EC12F0B1EC12F01200126E9E9667
:10247800C9CF11F012C0C9FF00D0C7A0FED7120003
:10248800000E126E190E116E3C0EB6EC0EF0700EA8
:10249800D36E12008292000E186E640E176E89ECCD
:1024A8000FF082821200F90ECB6E050ECA6E4A0E2C
:1024B800BB6E3C0EBA6E1200B1EC12F0A8EC12F032
:1024C80092EC12F0B5EC12F01200B5EC12F092ECAE
:1024D80012F0A8EC12F0B1EC12F01200A8EC12F015
:1024E80092EC12F0B1EC12F0B5EC12F01200136E8F
:1024F800819A818013503AEC12F0818A1200136E8F
:10250800819A819013503AEC12F0818A1200116E70
:1025180000D0ACA2FED711C0ADFF12009388060E02
:10252800E82EFED700D01200000E526EF19CCD901E
:102538009E90120092EC12F0B5EC12F0120092ECA0
:1025480012F0B1EC12F01200839E959E00D000D0DC
:102558001200000EBA6E819612008198939800D0EE
:102568001200958E00D000D01200000E526ECD9051
:0625780012004BFF010000
:10FCBC0000000000000000005F00000007000700CB
:10FCCC00147F147F14242A7F2A12231308646236AB
:10FCDC00495620500008070300001C224100004137
:10FCEC00221C002A1C7F1C2A08083E080800807071
:10FCFC0030000808080808000060600020100804A4
:10FD0C00023E5149453E00427F40007249494946F6
:10FD1C002141494D331814127F1027454545393C74
:10FD2C004A49493141211109073649494936464961
:10FD3C0049291E0000140000004034000000081483
:10FD4C0022411414141414004122140802015909FC
:10FD5C00063E415D594E7C1211127C7F4949493651
:10FD6C003E414141227F4141413E7F494949417FCA
:10FD7C00090909013E414151737F0808087F004180
:10FD8C007F41002040413F017F081422417F4040C9
:10FD9C0040407F021C027F7F0408107F3E4141419E
:10FDAC003E7F090909063E4151215E7F091929460A
:10FDBC00264949493203017F01033F4040403F1F20
:10FDCC002040201F3F4038403F6314081463030455
:10FDDC007804036159494D43007F414141020408B5
:10FDEC001020004141417F04020102044040404088
:10FDFC0040000307080020545478407F28444438BE
:10FE0C003844444428384444287F38545454180007
:10FE1C00087E090218A4A49C787F08040478004486
:10FE2C007D40002040403D007F1028440000417F71
:10FE3C0040007C047804787C0804047838444444FA
:10FE4C0038FC1824241818242418FC7C08040408F2
:10FE5C00485454542404043F44243C4040207C1C0B
:10FE6C002040201C3C4030403C44281028444C90FE
:10FE7C0090907C4464544C44000836410000007758
:10FE8C0000000041360800020102040201000000DB
:10FE9C000A00000064000000E803000010270000C6
:10FEAC00A086010040420F008096980000E1F50505
:10FEBC0000CA9A3B01000000100000000001000085
:10FECC000010000000000100000010000000000104
:10FEDC00000000104E45435F436F6465203D2025B4
:10FEEC0030386C7820257820666F756E64203D2044
:10FEFC0025640D0A00253032783A253032783A25BF
:10FF0C0030327820253032782F253032782F25303A
:10FF1C00327800454345333330314C20537072698D
:10FF2C006E672032312D53310043616E6E6F742039
:10FF3C0066696E6420627574746F6E200D0A002001
:10FF4C0054656D70203D2025642043203D202564A0
:10FF5C002046200052504D203D2025642020646313
:10FF6C00203D2025640D0A003031323334353637CC
:10FF7C003839616263646566004E45435F436F6464
:10FF8C0065203D2025780D0A0046616E205475725F
:10FF9C006E6564204F66660A00627574746F6E201D
:10FFAC003D202564200D0A0046616E205475726E4A
:10FFBC006564204F6E0A0054656D706572617475CE
:10FFCC0072653A0046616E20546F67676C65640A0F
:10FFDC0000202046414E0054696D650044617465F3
:10FFEC00004F4E20004F46460052504D00432F000C
:04FFFC00444300007A
:020000040020DA
:08000000FFFFFFFFFFFFFFFF00
:020000040030CA
:0E000000FF08191EFF8281FF0FC00FE00F40A6
:00000001FF
