:0400000065EF15F0A3
:1010000000010000000A00000064000000E8030086
:101010000010270000A086010040420F0080969833
:101020000000E1F50500CA9A3B00803FCDCC3DD7DA
:10103000233C12833AB7D138C62737388635C0D615
:1010400033CC2B32708930E7DB2EE53C1E42A20DFB
:1010500000803F00204100C842007A44401C4650B6
:10106000C34724744997184BBCBE4C6B6E4E031596
:101070005079AD60F349710D0A0A48656C6C6F20B8
:10108000576F726C642120466C6F6174696E6720C3
:10109000506F696E74205072696E7420776974683D
:1010A000203120646563696D616C20706C616365DB
:1010B00020743D25362E3166000D0A0A48656C6C99
:1010C0006F20576F726C642120466C6F6174696E7B
:1010D0006720506F696E74205072696E7420776952
:1010E0007468203220646563696D616C20706C6186
:1010F000636520743D25362E32660000420E4E6E2A
:10110000000E4F6EB6EF0CF0250E6318D8B405D064
:1011100063505DEC15F0B6EF0CF0000E576E000E4C
:10112000566E000E556E000E546E40C0F6FF41C064
:10113000F7FF0800F55042EC15F0D8A035D0000EAE
:10114000576E000E566E00D056C00FF057C010F00C
:10115000000E126E0A0E116E1CEC15F00FC056F048
:1011600010C057F0D00E456EFF0E466E40C0F6FF21
:1011700041C0F7FF0800F550476E486A45504726C2
:10118000465048224750562648505722404A412A46
:1011900040C0F6FF41C0F7FF0800F55042EC15F0E3
:1011A000D8A002D0D1D700D040C0F6FF41C0F7FF91
:1011B0000800F5502E0AD8A430D0558C404A412A58
:1011C000000E626E000E616E1CD061C00FF062C036
:1011D00010F0000E126E0A0E116E1CEC15F040C0DD
:1011E000F6FF41C0F7FF0800F5500F26000E102251
:1011F000D00E0F24616EFF0E1020626E404A412A0D
:1012000000D040C0F6FF41C0F7FF0800F55042ECA7
:1012100015F0D8A00DD0D9D70BD0000E626E000EFD
:10122000616E558805D0B1D3558413D09FD311D0AA
:1012300040C0F6FF41C0F7FF404A412A0800F5CF01
:1012400063F06350000AD8B4A0D3660AD8B4ECD7D0
:101250008DD3070E5514D8B400D355A805D0000E71
:10126000626E060E616E00D04EC0D9FF4FC0DAFF2D
:10127000DECF5EF0DECF5FF0DDCF60F0030E4E26F6
:10128000000E4F2260AE11D05EC001F05FC002F0D0
:1012900060C003F030EC15F001C05EF002C05FF0FA
:1012A00003C060F0030E541200D0000E5D6E000EFD
:1012B0005C6E5E505F106010D8B485D0820E456EB3
:1012C000FF0E466E5EC047F05FC048F060C049F058
:1012D00061C04AF0100E05D0D8904A3249324832E7
:1012E0004732E82EF9D7475045245C6E000E462061
:1012F0005D6E5C06D8A05D065CC00FF05DC010F0AE
:10130000000E126E030E116E1CEC15F00FC05CF097
:1013100010C05DF05CC007F05DC008F0000E0A6E02
:101320000A0E096E19EC13F007C05CF008C05DF0FE
:101330005DAE04D05C06D8A05D0600D05C5000080D
:10134000C6EC0CF024C058F025C059F026C05AF065
:1013500058C015F059C016F05AC017F05EC018F00A
:101360005FC019F060C01AF0C7EC11F015C058F05A
:1013700016C059F017C05AF058C001F059C002F019
:101380005AC003F0000E046E800E056E3F0E066E0E
:1013900064EC13F0D8B004D05C06D8A05D0613D07E
:1013A00058C001F059C002F05AC003F0000E046E9C
:1013B000200E056E410E066E64EC13F0D8A003D02B
:1013C0005C4A5D2A00D062BE06D062501CE10D0E60
:1013D000615CD8B018D05EC02EF05FC02FF060C046
:1013E00030F06150B6EC0EF024C031F025C032F080
:1013F00026C033F0D8EC0FF02EC05EF02FC05FF0A7
:1014000030C060F000D05DBE06D05D5020E10A0E15
:101410005C5CD8B01CD05E505F106010D8B46DD04A
:101420005EC02BF05FC02CF060C02DF043EC12F0DA
:101430002B502C102D102E10D8B45DBE5ED05D50F8
:1014400006E1020E5C5CD8B002D057D000D058C084
:1014500001F059C002F05AC003F0700E046E890EFC
:10146000056E400E066E64EC13F0D8B002D0F70E95
:1014700001D0F80E5C26FF0E5D2200D05C50C6EC59
:101480000CF024C058F025C059F026C05AF017D0EF
:101490005EC001F05FC002F060C003F058C004F00D
:1014A00059C005F05AC006F042EC11F001C050F0EE
:1014B00002C051F003C052F004C053F017D05EC018
:1014C00001F05FC002F060C003F058C004F059C0E2
:1014D00005F05AC006F0BAEC10F001C050F002C09E
:1014E00051F003C052F004C053F000D0000E5E6E05
:1014F000000E5F6E000E606E33D05EC02BF05FC0DA
:101500002CF060C02DF043EC12F02BC050F02CC03A
:1015100051F02DC052F02EC053F05EC03AF05FC0C3
:101520003BF060C03CF050C009F051C00AF052C01E
:101530000BF053C00CF0A6EC14F009C03DF00AC04B
:101540003EF00BC03FF0FAEC14F03AC05EF03BC046
:101550005FF03CC060F0000E5D6E000E5C6E00D06F
:10156000010E636E0A0E6318D8B41CD001D01AD0D5
:101570006350040D010EF324F66E100EF420F76E86
:101580000900F550505C0900F55051580900F5501C
:1015900052580900F5505358D8A004D001D002D0B9
:1015A000632AE0D763C045F0466A45BE46066150EF
:1015B0004526625046225C5045265D5046224550E5
:1015C000565E4650575A61506210D8B404D0560641
:1015D000D8A0570600D0030E5414456E000E5514C3
:1015E000466E45504610D8B409D004D007D0200E1E
:1015F0005DEC15F05606D8A0570600D057BE05D0B2
:101600005750F5E15604D8B0F2D7030E5414456E86
:10161000000E5514466E45504610D8B449D02D0ED4
:101620005DEC15F045D050C001F051C002F052C041
:1016300003F053C004F06350040D010EF324F66E62
:10164000100EF420F76E0900F5CF05F00900F5CF74
:1016500006F00900F5CF07F00A00F5CF08F0AFEC6F
:1016600013F001C058F002C059F003C05AF004C092
:101670005BF058C001F059C002F05AC003F05BC0E3
:1016800004F00A0E056E000E066E000E076E000EC8
:10169000086E36EC14F001C058F002C059F003C0D7
:1016A0005AF004C05BF05850300F5DEC15F000D0DC
:1016B00063066328D8B409D0B6D707D0300E5DECE6
:1016C00015F05C06D8A05D0600D05DBE05D05D506B
:1016D000F5E15C04D8B0F2D762BE09D0625004E1F3
:1016E000090E615CD8A003D0080E636E03D061C000
:1016F00063F000D06350615E000E63BEFF0E625A5D
:101700006350D8B404D02E0E5DEC15F000D06350B9
:10171000C6EC0CF024C04BF025C04CF026C04DF0B8
:101720005EC018F05FC019F060C01AF04BC015F031
:101730004CC016F04DC017F0C7EC11F015C02BF0DF
:1017400016C02CF017C02DF043EC12F02BC050F057
:101750002CC051F02DC052F02EC053F06BD050C0B1
:1017600001F051C002F052C003F053C004F06350C6
:10177000040D010EF324F66E100EF420F76E09002E
:10178000F5CF05F00900F5CF06F00900F5CF07F019
:101790000A00F5CF08F0AFEC13F001C058F002C01A
:1017A00059F003C05AF004C05BF058C001F059C0B2
:1017B00002F05AC003F05BC004F00A0E056E000E82
:1017C000066E000E076E000E086E36EC14F001C0B7
:1017D00058F002C059F003C05AF004C05BF05850F2
:1017E000300F5DEC15F050C001F051C002F052C056
:1017F00003F053C004F06350040D010EF324F66EA1
:10180000100EF420F76E0900F5CF05F00900F5CFB2
:1018100006F00900F5CF07F00A00F5CF08F036EC26
:1018200014F001C050F002C051F003C052F004C0E7
:1018300053F000D063066328D8B409D090D707D0FE
:10184000300E5DEC15F06106D8A0620600D0615044
:101850006210D8B48BD0F4D789D061506210D8A46C
:1018600009D05050511052105310D8A403D0614ADF
:10187000622A00D0800E63BE7F0E456E6150635CAD
:101880006250800A4558D8B003D061C063F011D0CF
:101890006250800A456E6350615C800E63BE7F0EAD
:1018A0004558D8B006D06350616E626A61BE620668
:1018B00000D056505710D8B40ED0030E5414456EB5
:1018C000000E5514466E45504610D8B404D0560646
:1018D000D8A0570600D055AC14D05650615C625069
:1018E000800A456E5750800A4558D8B005D06150DF
:1018F000565E6250575A05D0000E576E000E566E57
:1019000000D0800E63BE7F0E456E5650635C57500C
:10191000800A4558D8B007D06350565E000E63BEAB
:10192000FF0E575A05D0000E576E000E566E00D0AF
:1019300056505710D8B40CD0200E5DEC15F056065A
:10194000D8A0570656505710D8B402D0F5D700D0BB
:10195000030E5414456E000E5514466E4550461045
:10196000D8B404D02D0E5DEC15F000D040C0F6FFC9
:1019700041C0F7FF404A412A0800F5CF63F06350A9
:10198000D8B403D084EF08F000D012002A6E2AAE3B
:10199000EFD02A6C2A50800A120FD8A08DD0000EEA
:1019A000126E030E116E000E0A6E0A0E096E000E04
:1019B000046E640E036E2A50016E026A01BE0206B6
:1019C000F5EC13F001C007F002C008F019EC13F0B9
:1019D000090E07240F6E000E0820106E1CEC15F087
:1019E000290E0F24F66E100E1020F76E0900F5CFA9
:1019F00018F00900F5CF19F00A00F5CF1AF0000E23
:101A00000A6E640E096E2A50076E086A07BE080641
:101A100019EC13F0120E07240F6E000E0820106E42
:101A2000000E126E030E116E1CEC15F0290E0F2421
:101A3000F66E100E1020F76E0900F5CF15F00900B4
:101A4000F5CF16F00A00F5CF17F0C7EC11F015C06E
:101A500027F016C028F017C029F027C015F028C0BD
:101A600016F029C017F0000E126E030E116E000E54
:101A7000046E0A0E036E2A50016E026A01BE02064F
:101A8000F5EC13F001C00FF002C010F01CEC15F0E3
:101A9000290E0F24F66E100E1020F76E0900F5CFF8
:101AA00018F00900F5CF19F00A00F5CF1AF0C7ECCD
:101AB00011F041D15AD154D02A50800A750FD8A0C4
:101AC0004FD0000E0A6E0A0E096E2A50076E086A81
:101AD00007BE080619EC13F0090E07240F6E000E5E
:101AE0000820106E000E126E030E116E1CEC15F025
:101AF000290E0F24F66E100E1020F76E0900F5CF98
:101B000015F00900F5CF16F00A00F5CF17F0000E1A
:101B1000126E030E116E000E046E0A0E036E2A5032
:101B2000016E026A01BE0206F5EC13F001C00FF06F
:101B300002C010F01CEC15F0290E0F24F66E100EEA
:101B40001020F76E0900F5CF18F00900F5CF19F055
:101B50000A00F5CF1AF0C7EC11F0EDD006D100D095
:101B60002A50030D290EF324F66E100EF2D0FDD08C
:101B70002A50800A120FD8A08DD0000E126E030ECC
:101B8000116E000E0A6E0A0E096E000E046E640ECF
:101B9000036E2A50016E026A01BE0206F5EC13F0D4
:101BA00001C007F002C008F019EC13F0090E072479
:101BB0000F6E000E0820106E1CEC15F0500E0F2456
:101BC000F66E100E1020F76E0900F5CF18F0090020
:101BD000F5CF19F00A00F5CF1AF0000E0A6E640E68
:101BE000096E2A50076E086A07BE080619EC13F042
:101BF000120E07240F6E000E0820106E000E126EDB
:101C0000030E116E1CEC15F0500E0F24F66E100E24
:101C10001020F76E0900F5CF15F00900F5CF16F08A
:101C20000A00F5CF17F0C7EC11F015C027F016C069
:101C300028F017C029F027C015F028C016F029C0D9
:101C400017F0000E126E030E116E000E046E0A0ED7
:101C5000036E2A50016E026A01BE0206F5EC13F013
:101C600001C00FF002C010F01CEC15F0500E0F2454
:101C7000F66E100E1020F76E0900F5CF18F009006F
:101C8000F5CF19F00A00F5CF1AF0C7EC11F053D0D8
:101C90006CD059D02A50800A750FD8A054D0000EAD
:101CA0000A6E0A0E096E2A50076E086A07BE0806F9
:101CB00019EC13F0090E07240F6E000E0820106EA9
:101CC000000E126E030E116E1CEC15F0500E0F2458
:101CD000F66E100E1020F76E0900F5CF15F0090012
:101CE000F5CF16F00A00F5CF17F0000E126E030EB6
:101CF000116E000E046E0A0E036E2A50016E026A07
:101D000001BE0206F5EC13F001C00FF002C010F0A6
:101D10001CEC15F0500E0F24F66E100E1020F76E0E
:101D20000900F5CF18F00900F5CF19F00A00F5CF3A
:101D30001AF0C7EC11F015C024F016C025F017C03A
:101D400026F013D000D02A50030D500EF324F66E67
:101D5000100EF420F76E0900F5CF24F00900F5CF3E
:101D600025F00A00F5CF26F000D012002D6E6D0E82
:101D70002D649BD0000E126E030E116E000E0A6EC3
:101D80000A0E096E000E046E640E036E2DC001F083
:101D9000026AF5EC13F001C007F002C008F019EC7C
:101DA00013F0090E07240F6E000E0820106E1CECB5
:101DB00015F0290E0F24F66E100E1020F76E090094
:101DC000F5CF18F00900F5CF19F00A00F5CF1AF099
:101DD000000E0A6E640E096E2DC007F0086A19EC39
:101DE00013F0120E07240F6E000E0820106E000E66
:101DF000126E030E116E1CEC15F0290E0F24F66EF8
:101E0000100E1020F76E0900F5CF15F00900F5CF80
:101E100016F00A00F5CF17F0C7EC11F015C02AF044
:101E200016C02BF017C02CF0000E126E030E116EB0
:101E3000000E046E0A0E036E2DC001F0026AF5EC6E
:101E400013F001C00FF002C010F01CEC15F0290EC9
:101E50000F24F66E100E1020F76E0900F5CF18F063
:101E60000900F5CF19F00A00F5CF1AF02AC015F0D5
:101E70002BC016F02CC017F0C7EC11F015C027F0DE
:101E800016C028F017C029F027C015F028C016F09A
:101E900029C017F0000E186E000E196E3F0E1A6E54
:101EA000C7EC11F07DD083D062D00A0E2D645FD0D4
:101EB000000E126E030E116E000E046E0A0E036EFB
:101EC0002DC001F0026AF5EC13F001C00FF002C062
:101ED00010F01CEC15F0290E0F24F66E100E1020D9
:101EE000F76E0900F5CF18F00900F5CF19F00A00D8
:101EF000F5CF1AF0000E0A6E0A0E096E2DC007F01B
:101F0000086A19EC13F0090E07240F6E000E082062
:101F1000106E000E126E030E116E1CEC15F0290EE1
:101F20000F24F66E100E1020F76E0900F5CF15F095
:101F30000900F5CF16F00A00F5CF17F0C7EC11F045
:101F400015C02AF016C02BF017C02CF02AC015F0CF
:101F50002BC016F02CC017F0000E186E000E196E74
:101F60003F0E1A6EC7EC11F01BD021D000D02D50BF
:101F7000030D290EF324F66E100EF420F76E0900FF
:101F8000F5CF15F00900F5CF16F00A00F5CF17F0E0
:101F9000000E186E000E196E3F0E1A6EC7EC11F08F
:101FA00015C024F016C025F017C026F000D012008E
:101FB00030C034F0356A366A2F34343601E3358068
:101FC0003450396E33C034F0356A366A32343436C0
:101FD00001E335803450386E3950D8B40BD03850C6
:101FE000395CD8B00ED0395000083824346E180E41
:101FF000346407D031C02EF032C02FF033C030F03F
:10200000B8D03850D8B40BD03950385CD8B00ED0D6
:10201000385000083924346E180E346407D02EC0AE
:102020002EF02FC02FF030C030F0A3D0060E376E48
:1020300030AE02D0378E00D033BE378C2F8EFF0EDD
:102040002E16FF0E2F16000E3016328EFF0E311692
:10205000FF0E3216000E33163850395CD8B01ED041
:10206000D890313632363336380639503818D8B42D
:102070000FD0370637C034F0070E3416D8B408D066
:10208000EFD706D0D89030322F322E32392A00D0F6
:1020900038503918D8B424D0F5D722D03950385C0C
:1020A000D8B01ED0D8902E362F363036390639505B
:1020B0003818D8B40FD0370637C034F0070E3416AE
:1020C000D8B408D0EFD706D0D8903332323231327C
:1020D000382A00D038503918D8B402D0F5D700D0FB
:1020E00037AE0CD0FF0E2E1AFF0E2F1AFF0E301A2D
:1020F000010E2E26000E2F22000E302237AC0DD0FE
:10210000FF0E311AFF0E321AFF0E331A010E31265E
:10211000000E3222000E332200D0000E376E2E50F9
:1021200031262F5032223050332233AE0FD0FF0EE3
:10213000311AFF0E321AFF0E331A010E3126000E2D
:102140003222000E3322010E376E00D031C001F072
:1021500032C002F033C003F039C004F037C005F0DC
:10216000B6EC12F001C02EF002C02FF003C030F028
:1021700000D0120003C007F0086A096A023407366B
:1021800001E3088007500F6E0F50D8A402D05DD035
:1021900078D006C007F0086A096A0534073601E3FB
:1021A000088007500E6E0E50D8A402D04ED069D0D1
:1021B000028EFF0E0116FF0E0216000E0316058E8C
:1021C000FF0E0416FF0E0516000E0616000E0A6E10
:1021D000000E0B6E000E0C6E000E0D6E7F0E0F5E6D
:1021E0000E50980F0F5E180E0E6ED8900A360B36F2
:1021F0000C360D360450015C055002580650035849
:10220000D8A007D00450015E0550025A0650035A68
:102210000A80D8900136023603360E2EE6D700D05B
:102220000FAE10D00F50800A970FD8B003D00DD04A
:1022300028D000D0D8900D320C320B320A320F3E2B
:10224000F9D717D0170E0F6411D0000E016E000ED3
:10225000026E000E036E000E046E13D007D0D890ED
:102260000A360B360C360D360F0600D00F50D8A4A8
:10227000F6D70AC001F00BC002F00CC003F00DC08D
:1022800004F01200033404340C6E0C50D8A402D0B5
:1022900061D07CD0063407340B6E0B50D8A402D02A
:1022A00059D074D0038EFF0E0116FF0E0216FF0EDA
:1022B0000316000E0416068EFF0E0416FF0E0516FA
:1022C000FF0E0616000E0716000E076E000E086EB3
:1022D000000E096E000E0A6E7F0E0C5E0B50A00FF2
:1022E0000C5E200E0B6E00D0D890073608360936EB
:1022F0000A360450015C0550025806500358075036
:102300000458D8A00AD00450015E0550025A065065
:10231000035A0750045A078000D0D890013602367D
:10232000033604360B2EE0D700D00CAE10D00C5084
:10233000800A9F0FD8B003D00DD028D000D0D890FD
:102340000A320932083207320C3EF9D717D01F0E75
:102350000C6411D0000E016E000E026E000E036EB2
:10236000000E046E13D007D0D89007360836093611
:102370000A360C0600D00C50D8A4F6D707C001F0DE
:1023800008C002F009C003F00AC004F0120017C030
:102390001BF01C6A1D6A16341B3601E31C801B509F
:1023A0001E6E1E50D8A402D00ED06CD01AC01BF0E6
:1023B0001C6A1D6A19341B3601E31C801B50236EF6
:1023C0002350D8A407D0000E156E000E166E000E16
:1023D000176E58D023507B0F1E2617C023F01A50BB
:1023E000231A800E2316168E198EFF0E1816FF0E56
:1023F0001916000E1A16000E1F6E000E206E000E2B
:10240000216E070E226E00D015A007D018501F268F
:10241000195020221A50212200D0D890173216329B
:102420001532D890183619361A36222EEDD700D02C
:10243000090E226E00D015A007D018501F26195083
:1024400020221A50212200D0D8901732163215328D
:10245000D890213220321F32222EEDD700D01FC05B
:1024600001F020C002F021C003F01EC004F023C020
:1024700005F0B6EC12F001C015F002C016F003C072
:1024800017F000D012002DC02FF0306A316A2C34C2
:102490002F3601E330802F50396E3950D8A402D046
:1024A00039D063D0170E2F6E2BC030F02CC031F016
:1024B0002DC032F02F28336E04D0D8903232313212
:1024C0003032332EFAD73050346E2C8EFF0E2B164E
:1024D000FF0E2C16000E2D162B50356E2C50366E1E
:1024E0002D50376E386A8E0E395E39AE10D03950A5
:1024F000800A8F0FD8B003D00DD037D000D0D8903D
:102500003832373236323532393EF9D719D0170ED4
:10251000396411D0000E2B6E000E2C6E000E2D6E45
:10252000000E2E6E22D007D0D8903536363637368C
:102530003836390600D03950D8B402D0F5D700D09B
:102540003450D8B409D0381E371E361E356C000EF4
:1025500036223722382200D035C02BF036C02CF07E
:1025600037C02DF038C02EF000D012000450D8B47F
:1025700005D0015002100310D8A40ED0000E016E39
:10258000000E026E000E036E53D006D0042AD890BF
:1025900003320232013200D0000E0114066E000E2A
:1025A0000214076EFE0E0314086E06500710081082
:1025B000D8B40ED0EBD70CD0042A010E0126000EA1
:1025C0000222000E0322D89003320232013200D0E0
:1025D000000E0114066E000E0214076EFF0E0314A7
:1025E000086E065007100810D8B408D0E5D706D0FA
:1025F0000406D89001360236033600D002BE04D05D
:10260000020E0460F5D700D004B002D0029E00D0C4
:10261000D8900432045003120550D8B402D0038E6F
:1026200000D001C001F002C002F003C003F000D0EE
:102630001200000E0C6E0AAE07D0096C0A1ED8B04C
:102640000A2A010E0C6E00D008AE07D0076C081ED7
:10265000D8B0082A010E0C1A00D0000E0E6E000E23
:102660000D6E09500A10D8B421D0010E0B6E05D0A2
:10267000D89009360A360B2A00D00ABE02D0F8D705
:1026800000D0D8900D360E360950075C0A50085815
:10269000D8A006D00950075E0A50085A0D8000D015
:1026A000D8900A3209320B2EECD700D00C50D8B497
:1026B00005D00D6C0E1ED8B00E2A00D00DC007F04C
:1026C0000EC008F000D0120003AE17D001C007F012
:1026D00002C008F003C009F0071E081E091E072AE1
:1026E000000E08220922000E0724016E000E0820A9
:1026F000026E800E0920036E00D006AE17D004C013
:1027000007F005C008F006C009F0071E081E091EE4
:10271000072A000E08220922000E0724046E000E6C
:102720000820056E800E0920066E00D0000E011AEA
:10273000000E021A800E031A000E041A000E051A6B
:10274000800E061A0450015C0550025806500358CA
:10275000D8B002D0D89002D0D88000D01200000E9D
:10276000096E000E0A6E000E0B6E000E0C6E055008
:10277000061007100810D8B42FD0010E0D6E07D028
:10278000D89005360636073608360D2A00D008BE22
:1027900002D0F6D700D0D89009360A360B360C3660
:1027A0000550015C06500258075003580850045861
:1027B000D8A00AD00550015E0650025A0750035AAD
:1027C0000850045A098000D0D890083207320632E7
:1027D00005320D2EE0D700D009C001F00AC002F08A
:1027E0000BC003F00CC004F01200000E066E02AE27
:1027F00007D0016C021ED8B0022A010E066E00D06E
:1028000004AE05D0036C041ED8B0042A00D00350D7
:102810000410D8B41DD0010E056E05D0D890033633
:102820000436052A00D004BE02D0F8D700D00350E9
:10283000015C04500258D8A005D00350015E04503A
:10284000025A00D0D89004320332052EF0D700D0BF
:102850000650D8B405D0016C021ED8B0022A00D0B0
:1028600001C001F002C002F000D0120005500610B5
:1028700007100810D8B429D0010E096E07D0D890DF
:102880000536063607360836092A00D008BE02D0BB
:10289000F6D700D00550015C065002580750035887
:1028A00008500458D8A009D00550015E0650025ABD
:1028B0000750035A0850045A00D0D8900832073203
:1028C00006320532092EE6D700D001C001F002C061
:1028D00002F003C003F004C004F01200036E000E07
:1028E000AC6E000EAB6E03A002D0AC8800D003A289
:1028F00003D0AC8CAB8C00D003A402D0AC8E00D043
:1029000003A602D0AB8802D0AB8A00D003B8AC8457
:102910009E9803AA02D0AB8600D003AC02D09D8A59
:1029200001D09D9A9E9A03AE02D09D8801D09D98B9
:1029300001C0AFFF0250B06EAC8AAB8E949C948EF7
:10294000ACB8ACBE02D0948C00D012008E0E116ECA
:1029500007D0D8900C320B320A320932112A00D03B
:10296000000E09140D6E000E0A140E6E000E0B14EC
:102970000F6EFF0E0C14106E0D500E100F10101075
:10298000D8A4E7D709C001F00AC002F00BC003F0D9
:1029900011C004F0000E056EB6EC12F001C009F093
:1029A00002C00AF003C00BF000D0120053EC15F087
:1029B00000D0460E646E9F0E656E410E666E770EF9
:1029C000406E100E416E64C042F065C043F066C0B8
:1029D00044F07EEC08F0B90E406E100E416E64C0FB
:1029E00042F065C043F066C044F07EEC08F0E1D7E9
:1029F00000EF00F03D503E103F10D8B407D0000E5D
:102A00003D1A000E3E1A800E3F1A00D03AC02EF03A
:102A10003BC02FF03CC030F03DC031F03EC032F042
:102A20003FC033F0D8EC0FF02EC03AF02FC03BF08F
:102A300030C03CF000D012000F501102F3CF13F061
:102A4000F4CF14F00F501202F3501426105011025C
:102A5000F350142613C00FF014C010F000D0120071
:102A6000015002100310D8B406D0000E011A000E57
:102A7000021A800E031A01C001F002C002F003C066
:102A800003F01200036E000E026E3A0E036006D0D1
:102A90002F0E036403D0010E026E00D002C001F0BD
:102AA000013000D01200000E026E190E016E3C0EB5
:102AB0006EEC14F0600ED36E1200016E03D001C0F4
:102AC000ADFF00D0ACA2FBD71200000EF86E0001E3
:042AD000D6EF14F039
:020000040020DA
:08000000FFFFFFFFFFFFFFFF00
:020000040030CA
:0E000000FF08191EFF8381FF0FC00FE00F40A5
:00000001FF
